:1000000012C02CC02BC02AC029C028C027C026C0BF
:1000100025C024C023C022C021C020C01FC01EC0D4
:100020001DC01CC01BC011241FBECFE5D4E0DEBF25
:10003000CDBF10E0A0E6B0E0E0ECF0E002C005903B
:100040000D92AA36B107D9F710E0AAE6B0E001C0D8
:100050001D92AA36B107E1F702D031C0D1CFCF93BC
:10006000DF93CDB7DEB72A970FB6F894DEBF0FBE89
:10007000CDBFDE011196E0E6F0E08AE001900D923E
:100080008150E1F78FEF81BB40E050E0BE016F5F30
:100090007F4FFB01E40FF51F808182BB28EE33E028
:1000A00088EC90E00197F1F721503040C9F74F5F9D
:1000B0005F4F4A3051056CF340E050E0EACFFFCF8C
:0A00C000C0F9A4B0999282F8809074
:00000001FF
